:0E02C600010F00010800020B000002090000F9
:10013C007510017511011202B6D292D291D290D2E1
:10014C0086D287C2A7C2A6C2A2C2A3C2A4C2A5C29B
:10015C00A1C2A0C280C281C282C28312000E12014F
:10016C00BA12029D120209209216E5106401701059
:10017C007F0FFE12027DE4F51020920A050F800617
:10018C00309203751001209103750F05209017E52F
:10019C0011640170117F0FFE12027DE4F5112090A5
:0E01AC00BA75E76080B53090B275110180AD74
:1001BA00208606208703E4F50820861D30871A7FEB
:1001CA001E7E0012027D30860730870405088009EA
:1001DA0030860620870375080A30862220871F7F0B
:1001EA001E7E0012027D308606308703050F22200C
:0F01FA008603208709208606208703E4F50F225D
:10020900E50824FE601214601514601C24FA6022AB
:1002190024097028D2808026C280D2818022C2809F
:10022900C281D282C283801CC280C281C282D2832F
:100239008012D280D281D282D2838008C280C281C8
:0D024900C282C283E50864057002F5082238
:10000E00AF0F7E00EF700BC2A2C2A3C2A4C2A5D2D4
:10001E00A122EF64014E7020D2A2C2A3C2A4C2A537
:10002E00C2A1C3E50C940FE50B94004074E4F50BEC
:10003E00F50C7FDC7E05804AE50F64027020C2A2BB
:10004E00D2A3C2A4C2A5C2A1C3E50C940FE50B9422
:10005E0000404EE4F50BF50C7FB87E0B8024E50FC7
:10006E0064037021C2A2C2A3D2A4C2A5C2A1C3E5D9
:10007E000C940FE50B94004028E4F50BF50C7F7003
:10008E007E1702027DAF0F7E00EF6404700BC2A2DA
:10009E00C2A3C2A4D2A5C2A122EF64054E7002F57E
:0200AE000F221F
:10029D00C3E50A943CE5099400400DE4F509F50A1F
:0902AD00050CE50C7002050B22A2
:1002B600758901758CD8758AF0D2AFD2A9D28C22F5
:03000B0002025698
:10025600C0E0758CD8758AF0050EE50E7002050DA6
:100266006464450D700EF50DF50E050AE50A70027B
:070276000509B2A0D0E0323F
:10027D00E4FDFCC3ED9FEC9E5015E4FBFA0BBB00B7
:0F028D00010AEB646E4A70F50DBD00010C80E4B0
:01029C00223F
:030000000200B04B
:0C00B000787FE4F6D8FD7581110200F79E
:1000BC0002013CE493A3F8E493A34003F68001F21D
:1000CC0008DFF48029E493A3F85407240CC8C33345
:1000DC00C4540F4420C8834004F456800146F6DF14
:1000EC00E4800B01020408102040809002C6E47EDC
:1000FC00019360BCA3FF543F30E509541FFEE49309
:10010C00A360010ECF54C025E060A840B8E493A3CF
:10011C00FAE493A3F8E493A3C8C582C8CAC583CAFA
:10012C00F0A3C8C582C8CAC583CADFE9DEE780BEB2
:0102D4000029
:00000001FF
