:0E02BC00010F00010800020B00000209000003
:100152007510017511011202ACD292D291D290D2D5
:1001620086D287C2A7C2A6C2A2C2A3C2A4C2A5C285
:10017200A1C2A0C280C281C282C28312000E120238
:100182000F1202931201D0209216E5106401701032
:100192007F0FFE120273E4F51020920A050F80060B
:1001A200309203751001209103750F05209017E519
:1001B20011640170117F0FFE120273E4F511209099
:0E01C200BA75E76080B53090B275110180AD5E
:10020F00208606208703E4F50820861230870F7FAB
:10021F001E7E001202733086053087020508308675
:10022F001B2087187F1E7E001202733086063087D0
:0D023F0003B2A722208605308702B2A62256
:1001D000E50824FE600E1460111460182403701EDC
:1001E000D280801CC280D2818018C280C281D2821B
:1001F000C2838012C280C281C282D2838008C28040
:0F020000C281C282C283E50864057002F508223C
:10000E00AF0F7E00EF700BC2A2C2A3C2A4C2A5D2D4
:10001E00A122EF64014E7023D2A2C2A3C2A4C2A534
:10002E00C2A1C3E50C940FE50B940050030200C56A
:10003E00E4F50BF50C7FDC7E058079E50F6402702C
:10004E0020C2A2D2A3C2A4C2A5C2A1C3E50C940F22
:10005E00E50B94004061E4F50BF50C7FB87E0B8048
:10006E0053E50F64037020C2A2C2A3D2A4C2A5C2DC
:10007E00A1C3E50C940FE50B9400403BE4F50BF5A2
:10008E000C7F707E17802DAF0F7E00EF640470031F
:10009E00F50F22EF64054E701EC2A2C2A3C2A4D2F7
:1000AE00A5C2A17F987E3A120273E4F50FF50BF507
:0800BE000C7FC8FE1202732240
:10029300C3E50A943CE5099400400DE4F509F50A29
:0902A300050CE50C7002050B22AC
:1002AC00758901758CD8758AF0D2AFD2A9D28C22FF
:03000B0002024CA2
:10024C00C0E0758CD8758AF0050EE50E7002050DB0
:10025C006464450D700EF50DF50E050AE50A700285
:07026C000509B2A0D0E03249
:10027300E4FDFCC3ED9FEC9E5015E4FBFA0BBB00C1
:0F028300010AEB646E4A70F50DBD00010C80E4BA
:010292002249
:030000000200C635
:0C00C600787FE4F6D8FD75811102010D71
:1000D200020152E493A3F8E493A34003F68001F2F1
:1000E20008DFF48029E493A3F85407240CC8C3332F
:1000F200C4540F4420C8834004F456800146F6DFFE
:10010200E4800B01020408102040809002BCE47ECF
:10011200019360BCA3FF543F30E509541FFEE493F2
:10012200A360010ECF54C025E060A840B8E493A3B9
:10013200FAE493A3F8E493A3C8C582C8CAC583CAE4
:10014200F0A3C8C582C8CAC583CADFE9DEE780BE9C
:0102CA000033
:00000001FF
